{
  "_format": "hh-sol-artifact-1",
  "contractName": "ToDoList",
  "sourceName": "contracts/ToDoList.sol",
  "abi": [
    {
      "inputs": [],
      "stateMutability": "nonpayable",
      "type": "constructor"
    },
    {
      "anonymous": false,
      "inputs": [
        {
          "indexed": true,
          "internalType": "address",
          "name": "account",
          "type": "address"
        },
        {
          "indexed": true,
          "internalType": "uint256",
          "name": "userId",
          "type": "uint256"
        },
        {
          "indexed": false,
          "internalType": "string",
          "name": "message",
          "type": "string"
        },
        {
          "indexed": false,
          "internalType": "bool",
          "name": "completed",
          "type": "bool"
        }
      ],
      "name": "ToDoEvent",
      "type": "event"
    },
    {
      "inputs": [
        {
          "internalType": "address",
          "name": "",
          "type": "address"
        }
      ],
      "name": "ToDoListApps",
      "outputs": [
        {
          "internalType": "address",
          "name": "account",
          "type": "address"
        },
        {
          "internalType": "uint256",
          "name": "userId",
          "type": "uint256"
        },
        {
          "internalType": "string",
          "name": "message",
          "type": "string"
        },
        {
          "internalType": "bool",
          "name": "completed",
          "type": "bool"
        }
      ],
      "stateMutability": "view",
      "type": "function"
    },
    {
      "inputs": [],
      "name": "_iduser",
      "outputs": [
        {
          "internalType": "uint256",
          "name": "",
          "type": "uint256"
        }
      ],
      "stateMutability": "view",
      "type": "function"
    },
    {
      "inputs": [
        {
          "internalType": "string",
          "name": "_message",
          "type": "string"
        }
      ],
      "name": "createList",
      "outputs": [],
      "stateMutability": "nonpayable",
      "type": "function"
    },
    {
      "inputs": [
        {
          "internalType": "uint256",
          "name": "",
          "type": "uint256"
        }
      ],
      "name": "creators",
      "outputs": [
        {
          "internalType": "address",
          "name": "",
          "type": "address"
        }
      ],
      "stateMutability": "view",
      "type": "function"
    },
    {
      "inputs": [],
      "name": "getAddress",
      "outputs": [
        {
          "internalType": "address[]",
          "name": "",
          "type": "address[]"
        }
      ],
      "stateMutability": "view",
      "type": "function"
    },
    {
      "inputs": [],
      "name": "getMessage",
      "outputs": [
        {
          "internalType": "string[]",
          "name": "",
          "type": "string[]"
        }
      ],
      "stateMutability": "view",
      "type": "function"
    },
    {
      "inputs": [
        {
          "internalType": "address",
          "name": "",
          "type": "address"
        }
      ],
      "name": "getcreator",
      "outputs": [
        {
          "internalType": "address",
          "name": "",
          "type": "address"
        },
        {
          "internalType": "uint256",
          "name": "",
          "type": "uint256"
        },
        {
          "internalType": "string",
          "name": "",
          "type": "string"
        },
        {
          "internalType": "bool",
          "name": "",
          "type": "bool"
        }
      ],
      "stateMutability": "view",
      "type": "function"
    },
    {
      "inputs": [
        {
          "internalType": "uint256",
          "name": "",
          "type": "uint256"
        }
      ],
      "name": "message",
      "outputs": [
        {
          "internalType": "string",
          "name": "",
          "type": "string"
        }
      ],
      "stateMutability": "view",
      "type": "function"
    },
    {
      "inputs": [
        {
          "internalType": "uint256",
          "name": "",
          "type": "uint256"
        }
      ],
      "name": "messageId",
      "outputs": [
        {
          "internalType": "uint256",
          "name": "",
          "type": "uint256"
        }
      ],
      "stateMutability": "view",
      "type": "function"
    },
    {
      "inputs": [],
      "name": "ownerofContract",
      "outputs": [
        {
          "internalType": "address",
          "name": "",
          "type": "address"
        }
      ],
      "stateMutability": "view",
      "type": "function"
    },
    {
      "inputs": [
        {
          "internalType": "address",
          "name": "_creator",
          "type": "address"
        }
      ],
      "name": "toogle",
      "outputs": [],
      "stateMutability": "nonpayable",
      "type": "function"
    }
  ],
  "bytecode": "0x608060405234801561001057600080fd5b5033600160006101000a81548173ffffffffffffffffffffffffffffffffffffffff021916908373ffffffffffffffffffffffffffffffffffffffff16021790555061134a806100616000396000f3fe608060405234801561001057600080fd5b50600436106100a95760003560e01c8063974dd17b11610071578063974dd17b1461016b578063b8dcc68f1461019e578063cd53d08e146101ba578063ce6d41de146101ea578063d1e8507b14610208578063dae9679914610238576100a9565b80631082f0dd146100ae57806321e47d46146100cc57806338cc4831146100fc578063464e1e3b1461011a5780637d468e5d1461014d575b600080fd5b6100b6610254565b6040516100c39190610a0d565b60405180910390f35b6100e660048036038101906100e19190610a5e565b61025a565b6040516100f39190610a0d565b60405180910390f35b61010461027e565b6040516101119190610b7b565b60405180910390f35b610134600480360381019061012f9190610bc9565b61030c565b6040516101449493929190610cb0565b60405180910390f35b610155610491565b6040516101629190610cfc565b60405180910390f35b61018560048036038101906101809190610bc9565b6104b7565b6040516101959493929190610cb0565b60405180910390f35b6101b860048036038101906101b39190610d7c565b61059c565b005b6101d460048036038101906101cf9190610a5e565b6107a2565b6040516101e19190610cfc565b60405180910390f35b6101f26107e1565b6040516101ff9190610ed5565b60405180910390f35b610222600480360381019061021d9190610a5e565b6108ba565b60405161022f9190610ef7565b60405180910390f35b610252600480360381019061024d9190610bc9565b610966565b005b60005481565b6004818154811061026a57600080fd5b906000526020600020016000915090505481565b6060600280548060200260200160405190810160405280929190818152602001828054801561030257602002820191906000526020600020905b8160009054906101000a900473ffffffffffffffffffffffffffffffffffffffff1673ffffffffffffffffffffffffffffffffffffffff16815260200190600101908083116102b8575b5050505050905090565b6000806060600080600560003373ffffffffffffffffffffffffffffffffffffffff1673ffffffffffffffffffffffffffffffffffffffff1681526020019081526020016000206040518060800160405290816000820160009054906101000a900473ffffffffffffffffffffffffffffffffffffffff1673ffffffffffffffffffffffffffffffffffffffff1673ffffffffffffffffffffffffffffffffffffffff168152602001600182015481526020016002820180546103ce90610f48565b80601f01602080910402602001604051908101604052809291908181526020018280546103fa90610f48565b80156104475780601f1061041c57610100808354040283529160200191610447565b820191906000526020600020905b81548152906001019060200180831161042a57829003601f168201915b505050505081526020016003820160009054906101000a900460ff161515151581525050905080600001518160200151826040015183606001519450945094509450509193509193565b600160009054906101000a900473ffffffffffffffffffffffffffffffffffffffff1681565b60056020528060005260406000206000915090508060000160009054906101000a900473ffffffffffffffffffffffffffffffffffffffff169080600101549080600201805461050690610f48565b80601f016020809104026020016040519081016040528092919081815260200182805461053290610f48565b801561057f5780601f106105545761010080835404028352916020019161057f565b820191906000526020600020905b81548152906001019060200180831161056257829003601f168201915b5050505050908060030160009054906101000a900460ff16905084565b6105a46109db565b6000805490506000600560003373ffffffffffffffffffffffffffffffffffffffff1673ffffffffffffffffffffffffffffffffffffffff1681526020019081526020016000209050338160000160006101000a81548173ffffffffffffffffffffffffffffffffffffffff021916908373ffffffffffffffffffffffffffffffffffffffff160217905550838382600201918261064392919061115f565b5060008160030160006101000a81548160ff0219169083151502179055508181600101819055506002339080600181540180825580915050600190039060005260206000200160009091909190916101000a81548173ffffffffffffffffffffffffffffffffffffffff021916908373ffffffffffffffffffffffffffffffffffffffff160217905550600384849091806001815401808255809150506001900390600052602060002001600090919290919290919290919250918261070a92919061115f565b50600482908060018154018082558091505060019003906000526020600020016000909190919091505580600101543373ffffffffffffffffffffffffffffffffffffffff167f97cb199a6fede85e8843b14a3b82273a76130b0e671f8803ce27aa90d52ee11486868560030160009054906101000a900460ff166040516107949392919061126b565b60405180910390a350505050565b600281815481106107b257600080fd5b906000526020600020016000915054906101000a900473ffffffffffffffffffffffffffffffffffffffff1681565b60606003805480602002602001604051908101604052809291908181526020016000905b828210156108b157838290600052602060002001805461082490610f48565b80601f016020809104026020016040519081016040528092919081815260200182805461085090610f48565b801561089d5780601f106108725761010080835404028352916020019161089d565b820191906000526020600020905b81548152906001019060200180831161088057829003601f168201915b505050505081526020019060010190610805565b50505050905090565b600381815481106108ca57600080fd5b9060005260206000200160009150905080546108e590610f48565b80601f016020809104026020016040519081016040528092919081815260200182805461091190610f48565b801561095e5780601f106109335761010080835404028352916020019161095e565b820191906000526020600020905b81548152906001019060200180831161094157829003601f168201915b505050505081565b6000600560008373ffffffffffffffffffffffffffffffffffffffff1673ffffffffffffffffffffffffffffffffffffffff16815260200190815260200160002090508060030160009054906101000a900460ff16158160030160006101000a81548160ff0219169083151502179055505050565b6000808154809291906109ed906112cc565b9190505550565b6000819050919050565b610a07816109f4565b82525050565b6000602082019050610a2260008301846109fe565b92915050565b600080fd5b600080fd5b610a3b816109f4565b8114610a4657600080fd5b50565b600081359050610a5881610a32565b92915050565b600060208284031215610a7457610a73610a28565b5b6000610a8284828501610a49565b91505092915050565b600081519050919050565b600082825260208201905092915050565b6000819050602082019050919050565b600073ffffffffffffffffffffffffffffffffffffffff82169050919050565b6000610ae282610ab7565b9050919050565b610af281610ad7565b82525050565b6000610b048383610ae9565b60208301905092915050565b6000602082019050919050565b6000610b2882610a8b565b610b328185610a96565b9350610b3d83610aa7565b8060005b83811015610b6e578151610b558882610af8565b9750610b6083610b10565b925050600181019050610b41565b5085935050505092915050565b60006020820190508181036000830152610b958184610b1d565b905092915050565b610ba681610ad7565b8114610bb157600080fd5b50565b600081359050610bc381610b9d565b92915050565b600060208284031215610bdf57610bde610a28565b5b6000610bed84828501610bb4565b91505092915050565b610bff81610ad7565b82525050565b600081519050919050565b600082825260208201905092915050565b60005b83811015610c3f578082015181840152602081019050610c24565b60008484015250505050565b6000601f19601f8301169050919050565b6000610c6782610c05565b610c718185610c10565b9350610c81818560208601610c21565b610c8a81610c4b565b840191505092915050565b60008115159050919050565b610caa81610c95565b82525050565b6000608082019050610cc56000830187610bf6565b610cd260208301866109fe565b8181036040830152610ce48185610c5c565b9050610cf36060830184610ca1565b95945050505050565b6000602082019050610d116000830184610bf6565b92915050565b600080fd5b600080fd5b600080fd5b60008083601f840112610d3c57610d3b610d17565b5b8235905067ffffffffffffffff811115610d5957610d58610d1c565b5b602083019150836001820283011115610d7557610d74610d21565b5b9250929050565b60008060208385031215610d9357610d92610a28565b5b600083013567ffffffffffffffff811115610db157610db0610a2d565b5b610dbd85828601610d26565b92509250509250929050565b600081519050919050565b600082825260208201905092915050565b6000819050602082019050919050565b600082825260208201905092915050565b6000610e1182610c05565b610e1b8185610df5565b9350610e2b818560208601610c21565b610e3481610c4b565b840191505092915050565b6000610e4b8383610e06565b905092915050565b6000602082019050919050565b6000610e6b82610dc9565b610e758185610dd4565b935083602082028501610e8785610de5565b8060005b85811015610ec35784840389528151610ea48582610e3f565b9450610eaf83610e53565b925060208a01995050600181019050610e8b565b50829750879550505050505092915050565b60006020820190508181036000830152610eef8184610e60565b905092915050565b60006020820190508181036000830152610f118184610c5c565b905092915050565b7f4e487b7100000000000000000000000000000000000000000000000000000000600052602260045260246000fd5b60006002820490506001821680610f6057607f821691505b602082108103610f7357610f72610f19565b5b50919050565b600082905092915050565b7f4e487b7100000000000000000000000000000000000000000000000000000000600052604160045260246000fd5b60008190508160005260206000209050919050565b60006020601f8301049050919050565b600082821b905092915050565b6000600883026110157fffffffffffffffffffffffffffffffffffffffffffffffffffffffffffffffff82610fd8565b61101f8683610fd8565b95508019841693508086168417925050509392505050565b6000819050919050565b600061105c611057611052846109f4565b611037565b6109f4565b9050919050565b6000819050919050565b61107683611041565b61108a61108282611063565b848454610fe5565b825550505050565b600090565b61109f611092565b6110aa81848461106d565b505050565b5b818110156110ce576110c3600082611097565b6001810190506110b0565b5050565b601f821115611113576110e481610fb3565b6110ed84610fc8565b810160208510156110fc578190505b61111061110885610fc8565b8301826110af565b50505b505050565b600082821c905092915050565b600061113660001984600802611118565b1980831691505092915050565b600061114f8383611125565b9150826002028217905092915050565b6111698383610f79565b67ffffffffffffffff81111561118257611181610f84565b5b61118c8254610f48565b6111978282856110d2565b6000601f8311600181146111c657600084156111b4578287013590505b6111be8582611143565b865550611226565b601f1984166111d486610fb3565b60005b828110156111fc578489013582556001820191506020850194506020810190506111d7565b868310156112195784890135611215601f891682611125565b8355505b6001600288020188555050505b50505050505050565b82818337600083830152505050565b600061124a8385610c10565b935061125783858461122f565b61126083610c4b565b840190509392505050565b6000604082019050818103600083015261128681858761123e565b90506112956020830184610ca1565b949350505050565b7f4e487b7100000000000000000000000000000000000000000000000000000000600052601160045260246000fd5b60006112d7826109f4565b91507fffffffffffffffffffffffffffffffffffffffffffffffffffffffffffffffff82036113095761130861129d565b5b60018201905091905056fea2646970667358221220865c0398095bb6867b2d867c5c17d6365c707a3232d8f9668027aab5c3f0767a64736f6c63430008130033",
  "linkReferences": {},
  "deployedLinkReferences": {}
}